:020000040000FA
:08000000803102288731FD2F39
:10025800F000700823009100951315131514130866
:1002680035290800F1003829230095183C293D2933
:1002780038293E29710891007008930095131513C9
:10028800200003108B1F49294A294B2903148B137B
:100298002300151555309600AA30960095141511AF
:1002A8002000031C582959295A298B1712120800B3
:1002B80021009D145F299D18622963295F296429FB
:1002C8003430F000F230890B6729F00B67291F30B2
:1002D80021001C02031871297229762920000C16A6
:1002E8008C1676291F3021001C02031C7C297D29CD
:1002F8008729F0301C0203188229832987292000C6
:100308000C168C128729F03021001C02031C8D2941
:100318008E29922920000C128C1692290800F200CE
:100328002400951F982999299A29951320000E13BE
:10033800F30110307302031CA229A329A529B029AF
:10034800B0290130F1007108F30710307302031C63
:10035800AE29AF29A529B029403024009100B4293D
:10036800141CB729B829B429B92972089100BC29E5
:10037800141CBF29C029BC29C12970089100C429AF
:10038800141CC729C829C42920000E17F4011030ED
:100398007402031CD029D129D329DE29DE29013092
:1003A800F1007108F40710307402031CDC29DD2900
:1003B800D329DE290800FF30F5007508FC00FF305E
:1003C800F5007508FD00F701FB01FA01FA0AF901C9
:1003D80072302100990023008C018D018E010C15CB
:1003E80021000C148C140C150C128C120D168D1285
:1003F8000D138D170E148E140E158E150E168E16DF
:100408000E138E131E088F3940389E001E11FC30C3
:100418009E051D08833908389D001D142400951277
:100428001512F030950514179417951620000E171D
:100438001A30F500F830890B1F2AF50B1F2A0032F5
:100448002830F5007508F0000A3081319321813198
:10045800F0010030813193218131F0010130813187
:10046800932181317C08F5007508F0001230813144
:10047800932181317D08F5007508F0001330813132
:100488009321813120008D12F8017C090438FF3A4C
:10049800F5007508FC007C08F5007508F0001230BE
:1004A8008131932181317D08F5007508F000133002
:1004B800813193218131602AFB010B307B02031CBF
:1004C800662A672A692AA12AA12A81315C218131F9
:1004D8000630F5003030890B6F2AF50B6F2A003291
:1004E80020000E1C782A792A972A8E1C7C2A7D2ABD
:1004F800972A0E1D802A812A972A8E1D842A852AEA
:10050800972A0E1E882A892A972A8E1E8C2A8D2AB7
:10051800972A8D1F902A912A972A0D1E942A952A88
:10052800972AFB01972A0130F5007508FB070B3065
:100538007B02031CA02AA12A692A20000E18A52ADA
:10054800A62AB52A7808031DAA2AAB2AAF2AF801D9
:10055800F80A8D12B22AF8018D16B22AF901F90AA1
:10056800152E0D1AB82AB92AFC2A7A08031DBD2AA5
:10057800BE2AE02A7D080138F5007508FD007D08CF
:100588000238F5007508FD007D080438F500750887
:10059800FD007C080138F5007508FC007C0802386D
:1005A800F5007508FC00FA01FA0A7C090438FF3ADC
:1005B800F5007508FC00152EFA01013081312C2157
:1005C8008131F5007508FC00053081312C2181311D
:1005D800F5007508FD007D090138FF3AF50075083A
:1005E800FD007C080438F5007508FC00152E152E52
:1005F8008D1BFF2A002B152E7A03031D042B052BB8
:10060800152E7C090338FF3AF5007508FC007D09B2
:100618000738FF3AF5007508FD007C08F5007508F5
:10062800F00012308131932181317D08F500750881
:10063800F0001330813193218131FB010B307B02B3
:10064800031C272B282B2A2B582B582B0630F50058
:100658003030890B2D2BF50B2D2B003220000E1C72
:10066800362B372B4D2B8E1C3A2B3B2B4D2B0E1D2F
:100678003E2B3F2B4D2B8E1D422B432B4D2B0E1EFD
:10068800462B472B4D2B8E1E4A2B4B2B4D2BFB01FC
:100698004D2B0130F5007508FB070B307B02031C5E
:1006A800562B572B2A2B582B7C080338F500750836
:1006B800FC007D080738F5007508FD007C08F5008A
:1006C8007508F00012308131932181317D08F500E1
:1006D8007508F000133081319321813120008E1884
:1006E800762B772BED2B7D090138FF3AF50075083D
:1006F800FD007D08F5007508F00013308131932165
:1007080081310330F6008A30F5005630890B8A2B88
:10071800F50B8A2BF60B8A2B7D080138F500750836
:10072800FD007D08F5007508F00013308131932134
:1007380081310330F6008A30F5005630890BA22B40
:10074800F50BA22BF60BA22B7D090138FF3AF50019
:100758007508FD007D08F5007508F000133081313B
:10076800932181310330F6008A30F5005630890B29
:10077800BB2BF50BBB2BF60BBB2B7D080138F5000B
:100788007508FD007D08F5007508F000133081310B
:10079800932181317C08F5007508F0000130813122
:1007A800362181313430F500F230890BD92BF50B25
:1007B800D92B7D08F5007508F00005308131362108
:1007C80081313430F500F230890BE82BF50BE82B3A
:1007D800D92D0E19F02BF12B672C7D090238FF3A21
:1007E800F5007508FD007D08F5007508F000133068
:1007F8008131932181310330F6008A30F50056307B
:10080800890B042CF50B042CF60B042C7D080238FC
:10081800F5007508FD007D08F5007508F000133037
:100828008131932181310330F6008A30F50056304A
:10083800890B1C2CF50B1C2CF60B1C2C7D09023883
:10084800FF3AF5007508FD007D08F5007508F00011
:1008580013308131932181310330F6008A30F5005D
:100868005630890B352CF50B352CF60B352C7D08BD
:100878000238F5007508FD007D08F5007508F000E0
:1008880013308131932181317C08F5007508F0001F
:1008980009308131362181313430F500F230890B4D
:1008A800532CF50B532C7D08F5007508F0000D301E
:1008B8008131362181313430F500F230890B622CD8
:1008C800F50B622CD92D8E196A2C6B2CE12C7D0925
:1008D8000438FF3AF5007508FD007D08F500750835
:1008E800F00013308131932181310330F6008A30D2
:1008F800F5005630890B7E2CF50B7E2CF60B7E2CE2
:100908007D080438F5007508FD007D08F5007508B8
:10091800F00013308131932181310330F6008A30A1
:10092800F5005630890B962CF50B962CF60B962C69
:100938007D090438FF3AF5007508FD007D08F500CB
:100948007508F00013308131932181310330F600AE
:100958008A30F5005630890BAF2CF50BAF2CF60B0F
:10096800AF2C7D080438F5007508FD007D08F500FA
:100978007508F00013308131932181317C08F5002E
:100988007508F00011308131362181313430F5009D
:10099800F230890BCD2CF50BCD2C7D08F5007508B0
:1009A800F00015308131362181313430F500F230D4
:1009B800890BDC2CF50BDC2CD92D0E1AE42CE52C3C
:1009C8005B2D7C090138FF3AF5007508FC007C08AE
:1009D800F5007508F0001230813193218131033020
:1009E800F6008A30F5005630890BF82CF50BF82CF8
:1009F800F60BF82C7C080138F5007508FC007C081B
:100A0800F5007508F00012308131932181310330EF
:100A1800F6008A30F5005630890B102DF50B102D95
:100A2800F60B102D7C090138FF3AF5007508FC001B
:100A38007C08F5007508F00012308131932181316E
:100A48000330F6008A30F5005630890B292DF50B56
:100A5800292DF60B292D7C080138F5007508FC00B6
:100A68007C08F5007508F00012308131932181313E
:100A78007C08F5007508F000193081313621813184
:100A88003430F500F230890B472DF50B472D7D08E2
:100A9800F5007508F0001D30813136218131343080
:100AA800F500F230890B562DF50B562DD92D8E1ADF
:100AB8005E2D5F2DD92D7C090238FF3AF5007508A7
:100AC800FC007C08F5007508F00012308131932194
:100AD80081310330F6008A30F5005630890B722DCB
:100AE800F50B722DF60B722D7C080238F50075088F
:100AF800FC007C08F5007508F00012308131932164
:100B080081310330F6008A30F5005630890B8A2D82
:100B1800F50B8A2DF60B8A2D7C090238FF3AF50071
:100B28007508FC007C08F5007508F000123081316A
:100B3800932181310330F6008A30F5005630890B55
:100B4800A32DF50BA32DF60BA32D7C080238F50079
:100B58007508FC007C08F5007508F000123081313A
:100B6800932181317C08F5007508F000213081312E
:100B7800362181313430F500F230890BC12DF50B67
:100B8800C12D7D08F5007508F0002530813136212A
:100B980081313430F500F230890BD02DF50BD02D92
:100BA800D92DD92DD92DD92DD92DFB010B307B026B
:100BB800031CDF2DE02DE22D152E152E0630F50035
:100BC8003030890BE52DF50BE52D003220000E1C89
:100BD800EE2DEF2D042E8E1CF22DF32D042E0E1D5E
:100BE800F62DF72D042E8E1DFA2DFB2D042E0E1E2C
:100BF800FE2DFF2D042E8E1A022E032E062E042EF5
:100C0800FB01062E0130F5007508FB070B307B024F
:100C1800031C0F2E102EE22D152E152E152E152E17
:100C2800152E7A03031D192E1A2ECA2E7908031DB4
:100C38001E2E1F2ECA2E20008E18232E242E412E43
:100C4800FD19272E282E332E7D080838F500750843
:100C5800FD007C080838F5007508FC00A92F7D09FF
:100C68000838FF3AF5007508FD007C090838FF3A96
:100C7800F5007508FC00A92FA92F0E19442E452E42
:100C8800622E7D1A482E492E542E7D081038F50004
:100C98007508FD007C081038F5007508FC00A92FC0
:100CA8007D091038FF3AF5007508FD007C091038F9
:100CB800FF3AF5007508FC00A92FA92F8E19652E9B
:100CC800662E832EFD1A692E6A2E752E7D08203811
:100CD800F5007508FD007C082038F5007508FC0053
:100CE800A92F7D092038FF3AF5007508FD007C0919
:100CF8002038FF3AF5007508FC00A92FA92F0E1A15
:100D0800862E872EA42E7D1B8A2E8B2E962E7D084E
:100D18004038F5007508FD007C084038F500750876
:100D2800FC00A92F7D094038FF3AF5007508FD0041
:100D38007C094038FF3AF5007508FC00A92FA92F57
:100D48008E1AA72EA82EA92FFD1BAB2EAC2EB72EC0
:100D58007D088038F5007508FD007C088038F500AE
:100D68007508FC00A92F7D098038FF3AF500750841
:100D7800FD007C098038FF3AF5007508FC00A92FB2
:100D8800A92FA92FA92FA92FA92FA92F7A08031DA9
:100D9800CE2ECF2EA92F7908031DD32ED42EA92FFE
:100DA8007D080138F5007508FD007D080238F5005A
:100DB8007508FD007D080438F5007508FD007C08FD
:100DC8000138F5007508FC007C080238F500750844
:100DD800FC0020008E18F12EF22E0C2F01308131EC
:100DE8002C218131F5007508FC00053081312C215A
:100DF8008131F5007508FD007D090138FF3AF500DD
:100E08007508FD007C080438F5007508FC00A92F5A
:100E18000E190F2F102F2A2F093081312C218131E3
:100E2800F5007508FC000D3081312C218131F50069
:100E38007508FD007D090238FF3AF5007508FD00C8
:100E48007C080438F5007508FC00A92F8E192D2F91
:100E58002E2F482F113081312C218131F500750852
:100E6800FC00153081312C218131F5007508FD0019
:100E78007D090438FF3AF5007508FD007C08043840
:100E8800F5007508FC00A92F0E1A4B2F4C2F662F62
:100E9800193081312C218131F5007508FC001D3095
:100EA80081312C218131F5007508FD007C0901385C
:100EB800FF3AF5007508FC007C080438F500750851
:100EC800FC00A92F8E1A692F6A2F842F21308131B7
:100ED8002C218131F5007508FC00253081312C2149
:100EE8008131F5007508FD007C090238FF3AF500EC
:100EF8007508FC007C080438F5007508FC00A92F6B
:100F08000D1A872F882FA92F013081312C2181318B
:100F1800F5007508FC00053081312C218131F50080
:100F28007508FD007D090138FF3AF5007508FD00D8
:100F38007C080438F5007508FC00A92FA92FA92FF3
:100F4800A92FA92FA92FA92FA92F7C08F50075086B
:100F5800F00012308131932181317D08F500750848
:100F6800F0001330813193218131F901FB010B30FD
:100F78007B02031CC02FC12FC32F602A602A0630B2
:100F8800F5003030890BC62FF50BC62F0032200034
:100F98000E1CCF2FD02FED2F8E1CD32FD42FED2F3B
:100FA8000E1DD72FD82FED2F8E1DDB2FDC2FED2F09
:100FB8000E1EDF2FE02FED2F8E1EE32FE42FED2FD7
:100FC8008D1FE72FE82FED2F0D1AEB2FEC2FEF2FAA
:100FD800ED2FFB01EF2F0130F5007508FB070B30F3
:100FE8007B02031CF82FF92FC32F602A602A803157
:080FF800022820008131DF29ED
:020000040001F9
:02000E00A4FF4D
:00000001FF
